:0300000002001EDD
:0C001E00787FE4F6D8FD758113020065C0
:100130000112000113000A08029F250D9949411F71
:020140000109B3
:030003000200D721
:1000D700C0E0C0D00513E513B40A1075130005126C
:1000E700E512B40A06751300751200D0D0D0E032BD
:030013000200F7F1
:1000F700C0E0C0D01513E513B4FF1075130915122E
:10010700E512B4FF06751309751209D0D0D0E03295
:03001B000200AA36
:1000AA00C0E0C0D075D000C00020B00ED2B0740835
:1000BA002512F8E6F5A0C2B1800CD2B17408251356
:0D00CA00F8E6F5A0C2B0D000D0D0D0E032F2
:10011700D288D28AD2A8D2AA758BFA758DFA758938
:0901270019D2ABD2AFD28E80FEDA
:10002A00020117E493A3F8E493A34003F68001F2D4
:10003A0008DFF48029E493A3F85407240CC8C333D7
:10004A00C4540F4420C8834004F456800146F6DFA6
:10005A00E4800B0102040810204080900130E47E05
:10006A00019360BCA3FF543F30E509541FFEE4939B
:10007A00A360010ECF54C025E060A840B8E493A362
:10008A00FAE493A3F8E493A3C8C582C8CAC583CA8D
:10009A00F0A3C8C582C8CAC583CADFE9DEE780BE45
:0101420000BC
:00000001FF
